:0601BC0007040B0E1A00FF
:10010F00780D7C007D007BFF7A0179BC7E007F0635
:10011F001200D3E4F509E4F50875F020E509A425EC
:10012F0008F582E435F0F583E5822400F582E58356
:10013F0034FEF583741AF00508E508B410DB0509E1
:10014F00E509B408D1E4F50A850A09E4F508740D48
:10015F002509F8E6FF74002508F582E434FEF583DF
:10016F00EFF00509E509B40603E4F5090508E5080C
:10017F00B410DBE4F50BF50CAE0BAF0CE4FCFD7B20
:10018F00E87A80F9F8D31200F9400A050CE50C70F3
:10019F00E7050B80E3050AE50AB406ACE4F50A802F
:0101AF00A7A8
:030000000201B04A
:0C01B000787FE4F6D8FD75811202010F83
:10000300E709F608DFFA8046E709F208DFFA803EDF
:1000130088828C83E709F0A3DFFA8032E309F608CC
:10002300DFFA8078E309F208DFFA807088828C8334
:10003300E309F0A3DFFA806489828A83E0A3F608E8
:10004300DFFA805889828A83E0A3F208DFFA804CC2
:1000530080D280FA80C680D4806980F28033801099
:1000630080A680EA809A80A880DA80E280CA803302
:1000730089828A83ECFAE493A3C8C582C8CCC5837A
:10008300CCF0A3C8C582C8CCC583CCDFE9DEE7804A
:100093000D89828A83E493A3F608DFF9ECFAA9F0C9
:1000A300EDFB2289828A83ECFAE0A3C8C582C8CC1F
:1000B300C583CCF0A3C8C582C8CCC583CCDFEADE38
:1000C300E880DB89828A83E493A3F208DFF980CC9A
:1000D30088F0EF60010E4E60C388F0ED2402B40493
:1000E3000050B9F582EB2402B4040050AF2323453A
:0600F3008223900053730C
:1000F900EB9FF5F0EA9E42F0E99D42F0EC6480C87E
:0601090064809845F0221D
:00000001FF
