:0A027E00435045203231344C414218
:03001B00011B00C6
:10000300EF1FAA0670011ED39400EA940040087DF6
:070013000EED60EC1D80FA08
:01001A0022C3
:03002300020232A4
:0B023200C0E0C083C082C0D075D008BF
:10023D0030982885991C7400251BF582E434FEF551
:10024D0083E51CF04480F590C298E51BB409047F4A
:10025D00008004E51B04FF8F1B800D30990A3001CF
:08026D0007851D99C299D2001A
:09027500D0D0D082D083D0E03259
:1001A80078117C007D007BFF7A02797E7E007F0AD1
:1001B8001200F6E4F587F5B8758920758DFD758808
:1001C8004075985075A89085111DC200FCE4F51083
:1001D80075F020E510A42CF582E435F0F583E5826E
:1001E8002400F582E58334FEF583741AF00510E5E2
:1001F80010B408DC0CBC0FD5E4F510FCD201D29980
:100208003000FDBC09047F008003EC04FFAC0774D8
:10021800112CF8E6F51DC200EC70E5C2017F887E5E
:0A02280013120003D201D29980D610
:0300000002011CDE
:0C011C00787FE4F6D8FD758120020163B5
:10002600E709F608DFFA8046E709F208DFFA803EBC
:1000360088828C83E709F0A3DFFA8032E309F608A9
:10004600DFFA8078E309F208DFFA807088828C8311
:10005600E309F0A3DFFA806489828A83E0A3F608C5
:10006600DFFA805889828A83E0A3F208DFFA804C9F
:1000760080D280FA80C680D4806980F28033801076
:1000860080A680EA809A80A880DA80E280CA8033DF
:1000960089828A83ECFAE493A3C8C582C8CCC58357
:1000A600CCF0A3C8C582C8CCC583CCDFE9DEE78027
:1000B6000D89828A83E493A3F608DFF9ECFAA9F0A6
:1000C600EDFB2289828A83ECFAE0A3C8C582C8CCFC
:1000D600C583CCF0A3C8C582C8CCC583CCDFEADE15
:1000E600E880DB89828A83E493A3F208DFF980CC77
:1000F60088F0EF60010E4E60C388F0ED2402B40470
:100106000050B9F582EB2402B4040050AF23234516
:06011600822390007673C5
:100128000201A8E493A3F8E493A34003F68001F244
:1001380008DFF48029E493A3F85407240CC8C333D8
:10014800C4540F4420C8834004F456800146F6DFA7
:10015800E4800B010204081020408090001BE47E1C
:10016800019360BCA3FF543F30E509541FFEE4939C
:10017800A360010ECF54C025E060A840B8E493A363
:10018800FAE493A3F8E493A3C8C582C8CAC583CA8E
:10019800F0A3C8C582C8CAC583CADFE9DEE780BE46
:01001E0000E1
:00000001FF
