:10439300D2AF75891112430BD2A9758C3C758AB0C3
:1043A300D28C12440012433A8F361241E6E580F470
:0A43B30054F0FFC4540F70ED80DBDE
:10436800023000000135FF2020100000047003F423
:104378000000038600000000000003530000000056
:0A438800000000000000000000002B
:03000B000243E1CC
:1043E100C0E0C0D00531E53170020530B4D00BE535
:0F43F10030B407067580FF438702D0D0D0E0328A
:1040B600753700753801753900753A01753B00751D
:1040C6003C01E4F53EF53FFF124416E580F4540F3B
:1040D600F53DE53F653E7060E53E653D553DF53F86
:1040E600E580F4540FF53D0538E53870020537AE26
:1040F60037FF7C1F7D40124000ED4C7029053CE5E2
:104106003C7002053B5407701DAF3A124416E53A5F
:1041160025E0F53AE53933F539E53A641045397065
:1041260005F539753A01E538B4FEA7E537B4FFA2BF
:10413600753700753801809AAF3FEFB53D11E53E02
:10414600653D553DF53FE580F4540FF53D80EBAEFA
:0341560037AF3848
:014159002243
:104400001240B61242C512428E7C007D0F124055FA
:06441000ED04FF0244165A
:10433A00E4FFFEE580F4540FFDEEB5070CEF6D5D6A
:10434A00FEE580F4540FFD80F0AC06ECB5050CEFE9
:0D435A006D5DFEE580F4540FFD80F0AF06B0
:014367002233
:08441600EFC454F0F4F580221C
:1043BD00C2A9D3EF9400EE94004016758CFC758A5B
:1043CD0018D28C308DFDC28CC28DEF1F70E41E8013
:0343DD00E1D2A981
:0143E00022BA
:08441E00124416AF05024247EB
:0241E600AD0723
:1041E800E580F454F0FFC4540FFFC28CC2A9E4F573
:1041F80030F531ED24FE601924FE602224FC602B8A
:1042080024077034EFF45407FEEF54084EF5378056
:1042180029EFF4540BFEEF54044EF537801CEFF4ED
:10422800540DFEEF54024EF537800FEFF4540EFE96
:0F423800EF54014EF53780028F37AF3702441E27
:10430B00E4F537E4F538AF387401A807088002C329
:10431B0033D8FCFDFF12441E0538C3E53864809486
:0E432B008440E30537C3E5376480948440D5B1
:014339002261
:10424700EF75F002A42410F9E4FAFBF532F533898F
:104257003412408B45F06020AB32AA3312408BFDFD
:10426700ACF0C3E49DE49CFF3395E08F8DAF05EF81
:10427700F404F58BD28ED2AB7F0F7E001243BDC202
:07428700ABC28E7590FF220F
:03001B000242CFCF
:1042CF00C0E0C0F0C083C082C0D075D008AB32AAA6
:1042DF0033A93412408BFDACF0C3E49DE49CFF3353
:1042EF0095E08F8DAF0DEFF404F58B633580853539
:0C42FF0090D0D0D082D083D0F0D0E0323C
:0300000002415A60
:0C415A00787FE4F6D8FD7581430241A196
:10400000BC000BBE0029EF8DF084FFADF022E4CCA4
:10401000F875F008EF2FFFEE33FEEC33FCEE9DEC6D
:10402000984005FCEE9DFE0FD5F0E9E4CEFD22EDB3
:10403000F8F5F0EE8420D21CFEADF075F008EF2FFD
:10404000FFED33FD4007985006D5F0F222C398FDEE
:054050000FD5F0EA228B
:10405500C2D5EC30E709B2D5E4C39DFDE49CFCEE86
:1040650030E715B2D5E4C39FFFE49EFE124000C3BE
:10407500E49DFDE49CFC800312400030D507C3E4B9
:064085009FFFE49EFE22F5
:10408B00BB010A89828A83E0F5F0A3E02250068700
:10409B00F009E71922BBFE07E3F5F009E3192289C2
:0B40AB00828A83E493F5F074019322F5
:10428E00AC40AD41AE42AF43780FEFA2E2EC20E678
:10429E0001B35D5E5FF47004FCFDFEFFEF13FFEEF5
:1042AE0013FEED13FDEC13FCD8E08C408D418E42D5
:1042BE008F43EE547FFE228E408F41E4F542F5434C
:0142CE0022CD
:10416600024393E493A3F8E493A34003F68001F299
:1041760008DFF48029E493A3F85407240CC8C3335A
:10418600C4540F4420C8834004F456800146F6DF29
:10419600E4800B0102040810204080904368E47E0E
:1041A600019360BCA3FF543F30E509541FFEE4931E
:1041B600A360010ECF54C025E060A840B8E493A3E5
:1041C600FAE493A3F8E493A3C8C582C8CAC583CA10
:1041D600F0A3C8C582C8CAC583CADFE9DEE780BEC8
:01439200002A
:00000001FF
